{
  "_format": "hh-sol-artifact-1",
  "contractName": "ColabToken",
  "sourceName": "contracts/ColabToken.sol",
  "abi": [
    {
      "inputs": [],
      "stateMutability": "nonpayable",
      "type": "constructor"
    },
    {
      "anonymous": false,
      "inputs": [
        {
          "indexed": true,
          "internalType": "address",
          "name": "owner",
          "type": "address"
        },
        {
          "indexed": true,
          "internalType": "address",
          "name": "approved",
          "type": "address"
        },
        {
          "indexed": true,
          "internalType": "uint256",
          "name": "tokenId",
          "type": "uint256"
        }
      ],
      "name": "Approval",
      "type": "event"
    },
    {
      "anonymous": false,
      "inputs": [
        {
          "indexed": true,
          "internalType": "address",
          "name": "owner",
          "type": "address"
        },
        {
          "indexed": true,
          "internalType": "address",
          "name": "operator",
          "type": "address"
        },
        {
          "indexed": false,
          "internalType": "bool",
          "name": "approved",
          "type": "bool"
        }
      ],
      "name": "ApprovalForAll",
      "type": "event"
    },
    {
      "anonymous": false,
      "inputs": [
        {
          "indexed": true,
          "internalType": "address",
          "name": "previousOwner",
          "type": "address"
        },
        {
          "indexed": true,
          "internalType": "address",
          "name": "newOwner",
          "type": "address"
        }
      ],
      "name": "OwnershipTransferred",
      "type": "event"
    },
    {
      "anonymous": false,
      "inputs": [
        {
          "indexed": true,
          "internalType": "address",
          "name": "from",
          "type": "address"
        },
        {
          "indexed": true,
          "internalType": "address",
          "name": "to",
          "type": "address"
        },
        {
          "indexed": true,
          "internalType": "uint256",
          "name": "tokenId",
          "type": "uint256"
        }
      ],
      "name": "Transfer",
      "type": "event"
    },
    {
      "inputs": [
        {
          "internalType": "address",
          "name": "to",
          "type": "address"
        },
        {
          "internalType": "uint256",
          "name": "tokenId",
          "type": "uint256"
        }
      ],
      "name": "approve",
      "outputs": [],
      "stateMutability": "nonpayable",
      "type": "function"
    },
    {
      "inputs": [
        {
          "internalType": "address",
          "name": "owner",
          "type": "address"
        }
      ],
      "name": "balanceOf",
      "outputs": [
        {
          "internalType": "uint256",
          "name": "",
          "type": "uint256"
        }
      ],
      "stateMutability": "view",
      "type": "function"
    },
    {
      "inputs": [
        {
          "internalType": "uint256",
          "name": "tokenId",
          "type": "uint256"
        }
      ],
      "name": "getApproved",
      "outputs": [
        {
          "internalType": "address",
          "name": "",
          "type": "address"
        }
      ],
      "stateMutability": "view",
      "type": "function"
    },
    {
      "inputs": [
        {
          "internalType": "address",
          "name": "owner",
          "type": "address"
        },
        {
          "internalType": "address",
          "name": "operator",
          "type": "address"
        }
      ],
      "name": "isApprovedForAll",
      "outputs": [
        {
          "internalType": "bool",
          "name": "",
          "type": "bool"
        }
      ],
      "stateMutability": "view",
      "type": "function"
    },
    {
      "inputs": [],
      "name": "name",
      "outputs": [
        {
          "internalType": "string",
          "name": "",
          "type": "string"
        }
      ],
      "stateMutability": "view",
      "type": "function"
    },
    {
      "inputs": [],
      "name": "owner",
      "outputs": [
        {
          "internalType": "address",
          "name": "",
          "type": "address"
        }
      ],
      "stateMutability": "view",
      "type": "function"
    },
    {
      "inputs": [
        {
          "internalType": "uint256",
          "name": "tokenId",
          "type": "uint256"
        }
      ],
      "name": "ownerOf",
      "outputs": [
        {
          "internalType": "address",
          "name": "",
          "type": "address"
        }
      ],
      "stateMutability": "view",
      "type": "function"
    },
    {
      "inputs": [],
      "name": "renounceOwnership",
      "outputs": [],
      "stateMutability": "nonpayable",
      "type": "function"
    },
    {
      "inputs": [
        {
          "internalType": "string",
          "name": "uri",
          "type": "string"
        }
      ],
      "name": "safeMint",
      "outputs": [],
      "stateMutability": "nonpayable",
      "type": "function"
    },
    {
      "inputs": [
        {
          "internalType": "address",
          "name": "from",
          "type": "address"
        },
        {
          "internalType": "address",
          "name": "to",
          "type": "address"
        },
        {
          "internalType": "uint256",
          "name": "tokenId",
          "type": "uint256"
        }
      ],
      "name": "safeTransferFrom",
      "outputs": [],
      "stateMutability": "nonpayable",
      "type": "function"
    },
    {
      "inputs": [
        {
          "internalType": "address",
          "name": "from",
          "type": "address"
        },
        {
          "internalType": "address",
          "name": "to",
          "type": "address"
        },
        {
          "internalType": "uint256",
          "name": "tokenId",
          "type": "uint256"
        },
        {
          "internalType": "bytes",
          "name": "data",
          "type": "bytes"
        }
      ],
      "name": "safeTransferFrom",
      "outputs": [],
      "stateMutability": "nonpayable",
      "type": "function"
    },
    {
      "inputs": [
        {
          "internalType": "address",
          "name": "operator",
          "type": "address"
        },
        {
          "internalType": "bool",
          "name": "approved",
          "type": "bool"
        }
      ],
      "name": "setApprovalForAll",
      "outputs": [],
      "stateMutability": "nonpayable",
      "type": "function"
    },
    {
      "inputs": [
        {
          "internalType": "bytes4",
          "name": "interfaceId",
          "type": "bytes4"
        }
      ],
      "name": "supportsInterface",
      "outputs": [
        {
          "internalType": "bool",
          "name": "",
          "type": "bool"
        }
      ],
      "stateMutability": "view",
      "type": "function"
    },
    {
      "inputs": [],
      "name": "symbol",
      "outputs": [
        {
          "internalType": "string",
          "name": "",
          "type": "string"
        }
      ],
      "stateMutability": "view",
      "type": "function"
    },
    {
      "inputs": [],
      "name": "tokenCounter",
      "outputs": [
        {
          "internalType": "uint256",
          "name": "",
          "type": "uint256"
        }
      ],
      "stateMutability": "view",
      "type": "function"
    },
    {
      "inputs": [
        {
          "internalType": "uint256",
          "name": "tokenId",
          "type": "uint256"
        }
      ],
      "name": "tokenURI",
      "outputs": [
        {
          "internalType": "string",
          "name": "",
          "type": "string"
        }
      ],
      "stateMutability": "view",
      "type": "function"
    },
    {
      "inputs": [
        {
          "internalType": "address",
          "name": "from",
          "type": "address"
        },
        {
          "internalType": "address",
          "name": "to",
          "type": "address"
        },
        {
          "internalType": "uint256",
          "name": "tokenId",
          "type": "uint256"
        }
      ],
      "name": "transferFrom",
      "outputs": [],
      "stateMutability": "nonpayable",
      "type": "function"
    },
    {
      "inputs": [
        {
          "internalType": "address",
          "name": "newOwner",
          "type": "address"
        }
      ],
      "name": "transferOwnership",
      "outputs": [],
      "stateMutability": "nonpayable",
      "type": "function"
    }
  ],
  "bytecode": "0x60806040523480156200001157600080fd5b506040518060400160405280600a81526020017f436f6c6162546f6b656e000000000000000000000000000000000000000000008152506040518060400160405280600381526020017f434f54000000000000000000000000000000000000000000000000000000000081525081600090816200008f919062000412565b508060019081620000a1919062000412565b505050620000c4620000b8620000ca60201b60201c565b620000d260201b60201c565b620004f9565b600033905090565b6000600760009054906101000a900473ffffffffffffffffffffffffffffffffffffffff16905081600760006101000a81548173ffffffffffffffffffffffffffffffffffffffff021916908373ffffffffffffffffffffffffffffffffffffffff1602179055508173ffffffffffffffffffffffffffffffffffffffff168173ffffffffffffffffffffffffffffffffffffffff167f8be0079c531659141344cd1fd0a4f28419497f9722a3daafe3b4186f6b6457e060405160405180910390a35050565b600081519050919050565b7f4e487b7100000000000000000000000000000000000000000000000000000000600052604160045260246000fd5b7f4e487b7100000000000000000000000000000000000000000000000000000000600052602260045260246000fd5b600060028204905060018216806200021a57607f821691505b60208210810362000230576200022f620001d2565b5b50919050565b60008190508160005260206000209050919050565b60006020601f8301049050919050565b600082821b905092915050565b6000600883026200029a7fffffffffffffffffffffffffffffffffffffffffffffffffffffffffffffffff826200025b565b620002a686836200025b565b95508019841693508086168417925050509392505050565b6000819050919050565b6000819050919050565b6000620002f3620002ed620002e784620002be565b620002c8565b620002be565b9050919050565b6000819050919050565b6200030f83620002d2565b620003276200031e82620002fa565b84845462000268565b825550505050565b600090565b6200033e6200032f565b6200034b81848462000304565b505050565b5b8181101562000373576200036760008262000334565b60018101905062000351565b5050565b601f821115620003c2576200038c8162000236565b62000397846200024b565b81016020851015620003a7578190505b620003bf620003b6856200024b565b83018262000350565b50505b505050565b600082821c905092915050565b6000620003e760001984600802620003c7565b1980831691505092915050565b6000620004028383620003d4565b9150826002028217905092915050565b6200041d8262000198565b67ffffffffffffffff811115620004395762000438620001a3565b5b62000445825462000201565b6200045282828562000377565b600060209050601f8311600181146200048a576000841562000475578287015190505b620004818582620003f4565b865550620004f1565b601f1984166200049a8662000236565b60005b82811015620004c4578489015182556001820191506020850194506020810190506200049d565b86831015620004e45784890151620004e0601f891682620003d4565b8355505b6001600288020188555050505b505050505050565b612f0080620005096000396000f3fe608060405234801561001057600080fd5b50600436106101165760003560e01c8063715018a6116100a2578063b88d4fde11610071578063b88d4fde146102cb578063c87b56dd146102e7578063d082e38114610317578063e985e9c514610335578063f2fde38b1461036557610116565b8063715018a6146102695780638da5cb5b1461027357806395d89b4114610291578063a22cb465146102af57610116565b806323b872dd116100e957806323b872dd146101b557806342842e0e146101d15780636352211e146101ed578063695850fb1461021d57806370a082311461023957610116565b806301ffc9a71461011b57806306fdde031461014b578063081812fc14610169578063095ea7b314610199575b600080fd5b61013560048036038101906101309190611cd5565b610381565b6040516101429190611d1d565b60405180910390f35b610153610463565b6040516101609190611dc8565b60405180910390f35b610183600480360381019061017e9190611e20565b6104f5565b6040516101909190611e8e565b60405180910390f35b6101b360048036038101906101ae9190611ed5565b61053b565b005b6101cf60048036038101906101ca9190611f15565b610652565b005b6101eb60048036038101906101e69190611f15565b6106b2565b005b61020760048036038101906102029190611e20565b6106d2565b6040516102149190611e8e565b60405180910390f35b61023760048036038101906102329190611fcd565b610758565b005b610253600480360381019061024e919061201a565b610813565b6040516102609190612056565b60405180910390f35b6102716108ca565b005b61027b6108de565b6040516102889190611e8e565b60405180910390f35b610299610908565b6040516102a69190611dc8565b60405180910390f35b6102c960048036038101906102c4919061209d565b61099a565b005b6102e560048036038101906102e0919061220d565b6109b0565b005b61030160048036038101906102fc9190611e20565b610a12565b60405161030e9190611dc8565b60405180910390f35b61031f610a24565b60405161032c9190612056565b60405180910390f35b61034f600480360381019061034a9190612290565b610a35565b60405161035c9190611d1d565b60405180910390f35b61037f600480360381019061037a919061201a565b610ac9565b005b60007f80ac58cd000000000000000000000000000000000000000000000000000000007bffffffffffffffffffffffffffffffffffffffffffffffffffffffff1916827bffffffffffffffffffffffffffffffffffffffffffffffffffffffff1916148061044c57507f5b5e139f000000000000000000000000000000000000000000000000000000007bffffffffffffffffffffffffffffffffffffffffffffffffffffffff1916827bffffffffffffffffffffffffffffffffffffffffffffffffffffffff1916145b8061045c575061045b82610b4c565b5b9050919050565b606060008054610472906122ff565b80601f016020809104026020016040519081016040528092919081815260200182805461049e906122ff565b80156104eb5780601f106104c0576101008083540402835291602001916104eb565b820191906000526020600020905b8154815290600101906020018083116104ce57829003601f168201915b5050505050905090565b600061050082610bb6565b6004600083815260200190815260200160002060009054906101000a900473ffffffffffffffffffffffffffffffffffffffff169050919050565b6000610546826106d2565b90508073ffffffffffffffffffffffffffffffffffffffff168373ffffffffffffffffffffffffffffffffffffffff16036105b6576040517f08c379a00000000000000000000000000000000000000000000000000000000081526004016105ad906123a2565b60405180910390fd5b8073ffffffffffffffffffffffffffffffffffffffff166105d5610c01565b73ffffffffffffffffffffffffffffffffffffffff1614806106045750610603816105fe610c01565b610a35565b5b610643576040517f08c379a000000000000000000000000000000000000000000000000000000000815260040161063a90612434565b60405180910390fd5b61064d8383610c09565b505050565b61066361065d610c01565b82610cc2565b6106a2576040517f08c379a0000000000000000000000000000000000000000000000000000000008152600401610699906124c6565b60405180910390fd5b6106ad838383610d57565b505050565b6106cd838383604051806020016040528060008152506109b0565b505050565b6000806106de83611050565b9050600073ffffffffffffffffffffffffffffffffffffffff168173ffffffffffffffffffffffffffffffffffffffff160361074f576040517f08c379a000000000000000000000000000000000000000000000000000000000815260040161074690612532565b60405180910390fd5b80915050919050565b6000828290501161079e576040517f08c379a00000000000000000000000000000000000000000000000000000000081526004016107959061259e565b60405180910390fd5b60006107aa600861108d565b90506107b6600861109b565b6107c033826110b1565b61080e8184848080601f016020809104026020016040519081016040528093929190818152602001838380828437600081840152601f19601f820116905080830192505050505050506110cf565b505050565b60008073ffffffffffffffffffffffffffffffffffffffff168273ffffffffffffffffffffffffffffffffffffffff1603610883576040517f08c379a000000000000000000000000000000000000000000000000000000000815260040161087a90612630565b60405180910390fd5b600360008373ffffffffffffffffffffffffffffffffffffffff1673ffffffffffffffffffffffffffffffffffffffff168152602001908152602001600020549050919050565b6108d261113c565b6108dc60006111ba565b565b6000600760009054906101000a900473ffffffffffffffffffffffffffffffffffffffff16905090565b606060018054610917906122ff565b80601f0160208091040260200160405190810160405280929190818152602001828054610943906122ff565b80156109905780601f1061096557610100808354040283529160200191610990565b820191906000526020600020905b81548152906001019060200180831161097357829003601f168201915b5050505050905090565b6109ac6109a5610c01565b8383611280565b5050565b6109c16109bb610c01565b83610cc2565b610a00576040517f08c379a00000000000000000000000000000000000000000000000000000000081526004016109f7906124c6565b60405180910390fd5b610a0c848484846113ec565b50505050565b6060610a1d82611448565b9050919050565b6000610a30600861108d565b905090565b6000600560008473ffffffffffffffffffffffffffffffffffffffff1673ffffffffffffffffffffffffffffffffffffffff16815260200190815260200160002060008373ffffffffffffffffffffffffffffffffffffffff1673ffffffffffffffffffffffffffffffffffffffff16815260200190815260200160002060009054906101000a900460ff16905092915050565b610ad161113c565b600073ffffffffffffffffffffffffffffffffffffffff168173ffffffffffffffffffffffffffffffffffffffff1603610b40576040517f08c379a0000000000000000000000000000000000000000000000000000000008152600401610b37906126c2565b60405180910390fd5b610b49816111ba565b50565b60007f01ffc9a7000000000000000000000000000000000000000000000000000000007bffffffffffffffffffffffffffffffffffffffffffffffffffffffff1916827bffffffffffffffffffffffffffffffffffffffffffffffffffffffff1916149050919050565b610bbf8161155a565b610bfe576040517f08c379a0000000000000000000000000000000000000000000000000000000008152600401610bf590612532565b60405180910390fd5b50565b600033905090565b816004600083815260200190815260200160002060006101000a81548173ffffffffffffffffffffffffffffffffffffffff021916908373ffffffffffffffffffffffffffffffffffffffff160217905550808273ffffffffffffffffffffffffffffffffffffffff16610c7c836106d2565b73ffffffffffffffffffffffffffffffffffffffff167f8c5be1e5ebec7d5bd14f71427d1e84f3dd0314c0f7b2291e5b200ac8c7c3b92560405160405180910390a45050565b600080610cce836106d2565b90508073ffffffffffffffffffffffffffffffffffffffff168473ffffffffffffffffffffffffffffffffffffffff161480610d105750610d0f8185610a35565b5b80610d4e57508373ffffffffffffffffffffffffffffffffffffffff16610d36846104f5565b73ffffffffffffffffffffffffffffffffffffffff16145b91505092915050565b8273ffffffffffffffffffffffffffffffffffffffff16610d77826106d2565b73ffffffffffffffffffffffffffffffffffffffff1614610dcd576040517f08c379a0000000000000000000000000000000000000000000000000000000008152600401610dc490612754565b60405180910390fd5b600073ffffffffffffffffffffffffffffffffffffffff168273ffffffffffffffffffffffffffffffffffffffff1603610e3c576040517f08c379a0000000000000000000000000000000000000000000000000000000008152600401610e33906127e6565b60405180910390fd5b610e49838383600161159b565b8273ffffffffffffffffffffffffffffffffffffffff16610e69826106d2565b73ffffffffffffffffffffffffffffffffffffffff1614610ebf576040517f08c379a0000000000000000000000000000000000000000000000000000000008152600401610eb690612754565b60405180910390fd5b6004600082815260200190815260200160002060006101000a81549073ffffffffffffffffffffffffffffffffffffffff02191690556001600360008573ffffffffffffffffffffffffffffffffffffffff1673ffffffffffffffffffffffffffffffffffffffff168152602001908152602001600020600082825403925050819055506001600360008473ffffffffffffffffffffffffffffffffffffffff1673ffffffffffffffffffffffffffffffffffffffff16815260200190815260200160002060008282540192505081905550816002600083815260200190815260200160002060006101000a81548173ffffffffffffffffffffffffffffffffffffffff021916908373ffffffffffffffffffffffffffffffffffffffff160217905550808273ffffffffffffffffffffffffffffffffffffffff168473ffffffffffffffffffffffffffffffffffffffff167fddf252ad1be2c89b69c2b068fc378daa952ba7f163c4a11628f55a4df523b3ef60405160405180910390a461104b83838360016115a1565b505050565b60006002600083815260200190815260200160002060009054906101000a900473ffffffffffffffffffffffffffffffffffffffff169050919050565b600081600001549050919050565b6001816000016000828254019250508190555050565b6110cb8282604051806020016040528060008152506115a7565b5050565b6110d88261155a565b611117576040517f08c379a000000000000000000000000000000000000000000000000000000000815260040161110e90612878565b60405180910390fd5b806006600084815260200190815260200160002090816111379190612a44565b505050565b611144610c01565b73ffffffffffffffffffffffffffffffffffffffff166111626108de565b73ffffffffffffffffffffffffffffffffffffffff16146111b8576040517f08c379a00000000000000000000000000000000000000000000000000000000081526004016111af90612b62565b60405180910390fd5b565b6000600760009054906101000a900473ffffffffffffffffffffffffffffffffffffffff16905081600760006101000a81548173ffffffffffffffffffffffffffffffffffffffff021916908373ffffffffffffffffffffffffffffffffffffffff1602179055508173ffffffffffffffffffffffffffffffffffffffff168173ffffffffffffffffffffffffffffffffffffffff167f8be0079c531659141344cd1fd0a4f28419497f9722a3daafe3b4186f6b6457e060405160405180910390a35050565b8173ffffffffffffffffffffffffffffffffffffffff168373ffffffffffffffffffffffffffffffffffffffff16036112ee576040517f08c379a00000000000000000000000000000000000000000000000000000000081526004016112e590612bce565b60405180910390fd5b80600560008573ffffffffffffffffffffffffffffffffffffffff1673ffffffffffffffffffffffffffffffffffffffff16815260200190815260200160002060008473ffffffffffffffffffffffffffffffffffffffff1673ffffffffffffffffffffffffffffffffffffffff16815260200190815260200160002060006101000a81548160ff0219169083151502179055508173ffffffffffffffffffffffffffffffffffffffff168373ffffffffffffffffffffffffffffffffffffffff167f17307eab39ab6107e8899845ad3d59bd9653f200f220920489ca2b5937696c31836040516113df9190611d1d565b60405180910390a3505050565b6113f7848484610d57565b61140384848484611602565b611442576040517f08c379a000000000000000000000000000000000000000000000000000000000815260040161143990612c60565b60405180910390fd5b50505050565b606061145382610bb6565b6000600660008481526020019081526020016000208054611473906122ff565b80601f016020809104026020016040519081016040528092919081815260200182805461149f906122ff565b80156114ec5780601f106114c1576101008083540402835291602001916114ec565b820191906000526020600020905b8154815290600101906020018083116114cf57829003601f168201915b5050505050905060006114fd611789565b90506000815103611512578192505050611555565b60008251111561154757808260405160200161152f929190612cbc565b60405160208183030381529060405292505050611555565b611550846117a0565b925050505b919050565b60008073ffffffffffffffffffffffffffffffffffffffff1661157c83611050565b73ffffffffffffffffffffffffffffffffffffffff1614159050919050565b50505050565b50505050565b6115b18383611808565b6115be6000848484611602565b6115fd576040517f08c379a00000000000000000000000000000000000000000000000000000000081526004016115f490612c60565b60405180910390fd5b505050565b60006116238473ffffffffffffffffffffffffffffffffffffffff16611a25565b1561177c578373ffffffffffffffffffffffffffffffffffffffff1663150b7a0261164c610c01565b8786866040518563ffffffff1660e01b815260040161166e9493929190612d35565b6020604051808303816000875af19250505080156116aa57506040513d601f19601f820116820180604052508101906116a79190612d96565b60015b61172c573d80600081146116da576040519150601f19603f3d011682016040523d82523d6000602084013e6116df565b606091505b506000815103611724576040517f08c379a000000000000000000000000000000000000000000000000000000000815260040161171b90612c60565b60405180910390fd5b805181602001fd5b63150b7a0260e01b7bffffffffffffffffffffffffffffffffffffffffffffffffffffffff1916817bffffffffffffffffffffffffffffffffffffffffffffffffffffffff191614915050611781565b600190505b949350505050565b606060405180602001604052806000815250905090565b60606117ab82610bb6565b60006117b5611789565b905060008151116117d55760405180602001604052806000815250611800565b806117df84611a48565b6040516020016117f0929190612cbc565b6040516020818303038152906040525b915050919050565b600073ffffffffffffffffffffffffffffffffffffffff168273ffffffffffffffffffffffffffffffffffffffff1603611877576040517f08c379a000000000000000000000000000000000000000000000000000000000815260040161186e90612e0f565b60405180910390fd5b6118808161155a565b156118c0576040517f08c379a00000000000000000000000000000000000000000000000000000000081526004016118b790612e7b565b60405180910390fd5b6118ce60008383600161159b565b6118d78161155a565b15611917576040517f08c379a000000000000000000000000000000000000000000000000000000000815260040161190e90612e7b565b60405180910390fd5b6001600360008473ffffffffffffffffffffffffffffffffffffffff1673ffffffffffffffffffffffffffffffffffffffff16815260200190815260200160002060008282540192505081905550816002600083815260200190815260200160002060006101000a81548173ffffffffffffffffffffffffffffffffffffffff021916908373ffffffffffffffffffffffffffffffffffffffff160217905550808273ffffffffffffffffffffffffffffffffffffffff16600073ffffffffffffffffffffffffffffffffffffffff167fddf252ad1be2c89b69c2b068fc378daa952ba7f163c4a11628f55a4df523b3ef60405160405180910390a4611a216000838360016115a1565b5050565b6000808273ffffffffffffffffffffffffffffffffffffffff163b119050919050565b606060006001611a5784611b16565b01905060008167ffffffffffffffff811115611a7657611a756120e2565b5b6040519080825280601f01601f191660200182016040528015611aa85781602001600182028036833780820191505090505b509050600082602001820190505b600115611b0b578080600190039150507f3031323334353637383961626364656600000000000000000000000000000000600a86061a8153600a8581611aff57611afe612e9b565b5b04945060008503611ab6575b819350505050919050565b600080600090507a184f03e93ff9f4daa797ed6e38ed64bf6a1f0100000000000000008310611b74577a184f03e93ff9f4daa797ed6e38ed64bf6a1f0100000000000000008381611b6a57611b69612e9b565b5b0492506040810190505b6d04ee2d6d415b85acef81000000008310611bb1576d04ee2d6d415b85acef81000000008381611ba757611ba6612e9b565b5b0492506020810190505b662386f26fc100008310611be057662386f26fc100008381611bd657611bd5612e9b565b5b0492506010810190505b6305f5e1008310611c09576305f5e1008381611bff57611bfe612e9b565b5b0492506008810190505b6127108310611c2e576127108381611c2457611c23612e9b565b5b0492506004810190505b60648310611c515760648381611c4757611c46612e9b565b5b0492506002810190505b600a8310611c60576001810190505b80915050919050565b6000604051905090565b600080fd5b600080fd5b60007fffffffff0000000000000000000000000000000000000000000000000000000082169050919050565b611cb281611c7d565b8114611cbd57600080fd5b50565b600081359050611ccf81611ca9565b92915050565b600060208284031215611ceb57611cea611c73565b5b6000611cf984828501611cc0565b91505092915050565b60008115159050919050565b611d1781611d02565b82525050565b6000602082019050611d326000830184611d0e565b92915050565b600081519050919050565b600082825260208201905092915050565b60005b83811015611d72578082015181840152602081019050611d57565b60008484015250505050565b6000601f19601f8301169050919050565b6000611d9a82611d38565b611da48185611d43565b9350611db4818560208601611d54565b611dbd81611d7e565b840191505092915050565b60006020820190508181036000830152611de28184611d8f565b905092915050565b6000819050919050565b611dfd81611dea565b8114611e0857600080fd5b50565b600081359050611e1a81611df4565b92915050565b600060208284031215611e3657611e35611c73565b5b6000611e4484828501611e0b565b91505092915050565b600073ffffffffffffffffffffffffffffffffffffffff82169050919050565b6000611e7882611e4d565b9050919050565b611e8881611e6d565b82525050565b6000602082019050611ea36000830184611e7f565b92915050565b611eb281611e6d565b8114611ebd57600080fd5b50565b600081359050611ecf81611ea9565b92915050565b60008060408385031215611eec57611eeb611c73565b5b6000611efa85828601611ec0565b9250506020611f0b85828601611e0b565b9150509250929050565b600080600060608486031215611f2e57611f2d611c73565b5b6000611f3c86828701611ec0565b9350506020611f4d86828701611ec0565b9250506040611f5e86828701611e0b565b9150509250925092565b600080fd5b600080fd5b600080fd5b60008083601f840112611f8d57611f8c611f68565b5b8235905067ffffffffffffffff811115611faa57611fa9611f6d565b5b602083019150836001820283011115611fc657611fc5611f72565b5b9250929050565b60008060208385031215611fe457611fe3611c73565b5b600083013567ffffffffffffffff81111561200257612001611c78565b5b61200e85828601611f77565b92509250509250929050565b6000602082840312156120305761202f611c73565b5b600061203e84828501611ec0565b91505092915050565b61205081611dea565b82525050565b600060208201905061206b6000830184612047565b92915050565b61207a81611d02565b811461208557600080fd5b50565b60008135905061209781612071565b92915050565b600080604083850312156120b4576120b3611c73565b5b60006120c285828601611ec0565b92505060206120d385828601612088565b9150509250929050565b600080fd5b7f4e487b7100000000000000000000000000000000000000000000000000000000600052604160045260246000fd5b61211a82611d7e565b810181811067ffffffffffffffff82111715612139576121386120e2565b5b80604052505050565b600061214c611c69565b90506121588282612111565b919050565b600067ffffffffffffffff821115612178576121776120e2565b5b61218182611d7e565b9050602081019050919050565b82818337600083830152505050565b60006121b06121ab8461215d565b612142565b9050828152602081018484840111156121cc576121cb6120dd565b5b6121d784828561218e565b509392505050565b600082601f8301126121f4576121f3611f68565b5b813561220484826020860161219d565b91505092915050565b6000806000806080858703121561222757612226611c73565b5b600061223587828801611ec0565b945050602061224687828801611ec0565b935050604061225787828801611e0b565b925050606085013567ffffffffffffffff81111561227857612277611c78565b5b612284878288016121df565b91505092959194509250565b600080604083850312156122a7576122a6611c73565b5b60006122b585828601611ec0565b92505060206122c685828601611ec0565b9150509250929050565b7f4e487b7100000000000000000000000000000000000000000000000000000000600052602260045260246000fd5b6000600282049050600182168061231757607f821691505b60208210810361232a576123296122d0565b5b50919050565b7f4552433732313a20617070726f76616c20746f2063757272656e74206f776e6560008201527f7200000000000000000000000000000000000000000000000000000000000000602082015250565b600061238c602183611d43565b915061239782612330565b604082019050919050565b600060208201905081810360008301526123bb8161237f565b9050919050565b7f4552433732313a20617070726f76652063616c6c6572206973206e6f7420746f60008201527f6b656e206f776e6572206f7220617070726f76656420666f7220616c6c000000602082015250565b600061241e603d83611d43565b9150612429826123c2565b604082019050919050565b6000602082019050818103600083015261244d81612411565b9050919050565b7f4552433732313a2063616c6c6572206973206e6f7420746f6b656e206f776e6560008201527f72206f7220617070726f76656400000000000000000000000000000000000000602082015250565b60006124b0602d83611d43565b91506124bb82612454565b604082019050919050565b600060208201905081810360008301526124df816124a3565b9050919050565b7f4552433732313a20696e76616c696420746f6b656e2049440000000000000000600082015250565b600061251c601883611d43565b9150612527826124e6565b602082019050919050565b6000602082019050818103600083015261254b8161250f565b9050919050565b7f456d707479207572690000000000000000000000000000000000000000000000600082015250565b6000612588600983611d43565b915061259382612552565b602082019050919050565b600060208201905081810360008301526125b78161257b565b9050919050565b7f4552433732313a2061646472657373207a65726f206973206e6f74206120766160008201527f6c6964206f776e65720000000000000000000000000000000000000000000000602082015250565b600061261a602983611d43565b9150612625826125be565b604082019050919050565b600060208201905081810360008301526126498161260d565b9050919050565b7f4f776e61626c653a206e6577206f776e657220697320746865207a65726f206160008201527f6464726573730000000000000000000000000000000000000000000000000000602082015250565b60006126ac602683611d43565b91506126b782612650565b604082019050919050565b600060208201905081810360008301526126db8161269f565b9050919050565b7f4552433732313a207472616e736665722066726f6d20696e636f72726563742060008201527f6f776e6572000000000000000000000000000000000000000000000000000000602082015250565b600061273e602583611d43565b9150612749826126e2565b604082019050919050565b6000602082019050818103600083015261276d81612731565b9050919050565b7f4552433732313a207472616e7366657220746f20746865207a65726f2061646460008201527f7265737300000000000000000000000000000000000000000000000000000000602082015250565b60006127d0602483611d43565b91506127db82612774565b604082019050919050565b600060208201905081810360008301526127ff816127c3565b9050919050565b7f45524337323155524953746f726167653a2055524920736574206f66206e6f6e60008201527f6578697374656e7420746f6b656e000000000000000000000000000000000000602082015250565b6000612862602e83611d43565b915061286d82612806565b604082019050919050565b6000602082019050818103600083015261289181612855565b9050919050565b60008190508160005260206000209050919050565b60006020601f8301049050919050565b600082821b905092915050565b6000600883026128fa7fffffffffffffffffffffffffffffffffffffffffffffffffffffffffffffffff826128bd565b61290486836128bd565b95508019841693508086168417925050509392505050565b6000819050919050565b600061294161293c61293784611dea565b61291c565b611dea565b9050919050565b6000819050919050565b61295b83612926565b61296f61296782612948565b8484546128ca565b825550505050565b600090565b612984612977565b61298f818484612952565b505050565b5b818110156129b3576129a860008261297c565b600181019050612995565b5050565b601f8211156129f8576129c981612898565b6129d2846128ad565b810160208510156129e1578190505b6129f56129ed856128ad565b830182612994565b50505b505050565b600082821c905092915050565b6000612a1b600019846008026129fd565b1980831691505092915050565b6000612a348383612a0a565b9150826002028217905092915050565b612a4d82611d38565b67ffffffffffffffff811115612a6657612a656120e2565b5b612a7082546122ff565b612a7b8282856129b7565b600060209050601f831160018114612aae5760008415612a9c578287015190505b612aa68582612a28565b865550612b0e565b601f198416612abc86612898565b60005b82811015612ae457848901518255600182019150602085019450602081019050612abf565b86831015612b015784890151612afd601f891682612a0a565b8355505b6001600288020188555050505b505050505050565b7f4f776e61626c653a2063616c6c6572206973206e6f7420746865206f776e6572600082015250565b6000612b4c602083611d43565b9150612b5782612b16565b602082019050919050565b60006020820190508181036000830152612b7b81612b3f565b9050919050565b7f4552433732313a20617070726f766520746f2063616c6c657200000000000000600082015250565b6000612bb8601983611d43565b9150612bc382612b82565b602082019050919050565b60006020820190508181036000830152612be781612bab565b9050919050565b7f4552433732313a207472616e7366657220746f206e6f6e20455243373231526560008201527f63656976657220696d706c656d656e7465720000000000000000000000000000602082015250565b6000612c4a603283611d43565b9150612c5582612bee565b604082019050919050565b60006020820190508181036000830152612c7981612c3d565b9050919050565b600081905092915050565b6000612c9682611d38565b612ca08185612c80565b9350612cb0818560208601611d54565b80840191505092915050565b6000612cc88285612c8b565b9150612cd48284612c8b565b91508190509392505050565b600081519050919050565b600082825260208201905092915050565b6000612d0782612ce0565b612d118185612ceb565b9350612d21818560208601611d54565b612d2a81611d7e565b840191505092915050565b6000608082019050612d4a6000830187611e7f565b612d576020830186611e7f565b612d646040830185612047565b8181036060830152612d768184612cfc565b905095945050505050565b600081519050612d9081611ca9565b92915050565b600060208284031215612dac57612dab611c73565b5b6000612dba84828501612d81565b91505092915050565b7f4552433732313a206d696e7420746f20746865207a65726f2061646472657373600082015250565b6000612df9602083611d43565b9150612e0482612dc3565b602082019050919050565b60006020820190508181036000830152612e2881612dec565b9050919050565b7f4552433732313a20746f6b656e20616c7265616479206d696e74656400000000600082015250565b6000612e65601c83611d43565b9150612e7082612e2f565b602082019050919050565b60006020820190508181036000830152612e9481612e58565b9050919050565b7f4e487b7100000000000000000000000000000000000000000000000000000000600052601260045260246000fdfea264697066735822122012ce2918b09ffe4c70c8efb0804fc3dca1c77944ea0894c70e623bc92c2d290564736f6c63430008110033",
  "linkReferences": {},
  "deployedLinkReferences": {}
}